{"abi":[{"type":"constructor","inputs":[{"name":"initialOwner","type":"address","internalType":"address"}],"stateMutability":"nonpayable"},{"type":"function","name":"approve","inputs":[{"name":"to","type":"address","internalType":"address"},{"name":"tokenId","type":"uint256","internalType":"uint256"}],"outputs":[],"stateMutability":"nonpayable"},{"type":"function","name":"balanceOf","inputs":[{"name":"owner","type":"address","internalType":"address"}],"outputs":[{"name":"","type":"uint256","internalType":"uint256"}],"stateMutability":"view"},{"type":"function","name":"currentTokenId","inputs":[],"outputs":[{"name":"","type":"uint256","internalType":"uint256"}],"stateMutability":"view"},{"type":"function","name":"getApproved","inputs":[{"name":"tokenId","type":"uint256","internalType":"uint256"}],"outputs":[{"name":"","type":"address","internalType":"address"}],"stateMutability":"view"},{"type":"function","name":"isApprovedForAll","inputs":[{"name":"owner","type":"address","internalType":"address"},{"name":"operator","type":"address","internalType":"address"}],"outputs":[{"name":"","type":"bool","internalType":"bool"}],"stateMutability":"view"},{"type":"function","name":"name","inputs":[],"outputs":[{"name":"","type":"string","internalType":"string"}],"stateMutability":"view"},{"type":"function","name":"owner","inputs":[],"outputs":[{"name":"","type":"address","internalType":"address"}],"stateMutability":"view"},{"type":"function","name":"ownerOf","inputs":[{"name":"tokenId","type":"uint256","internalType":"uint256"}],"outputs":[{"name":"","type":"address","internalType":"address"}],"stateMutability":"view"},{"type":"function","name":"renounceOwnership","inputs":[],"outputs":[],"stateMutability":"nonpayable"},{"type":"function","name":"safeMint","inputs":[{"name":"to","type":"address","internalType":"address"},{"name":"uri","type":"string","internalType":"string"}],"outputs":[{"name":"tokenId","type":"uint256","internalType":"uint256"}],"stateMutability":"nonpayable"},{"type":"function","name":"safeTransferFrom","inputs":[{"name":"from","type":"address","internalType":"address"},{"name":"to","type":"address","internalType":"address"},{"name":"tokenId","type":"uint256","internalType":"uint256"}],"outputs":[],"stateMutability":"nonpayable"},{"type":"function","name":"safeTransferFrom","inputs":[{"name":"from","type":"address","internalType":"address"},{"name":"to","type":"address","internalType":"address"},{"name":"tokenId","type":"uint256","internalType":"uint256"},{"name":"data","type":"bytes","internalType":"bytes"}],"outputs":[],"stateMutability":"nonpayable"},{"type":"function","name":"setApprovalForAll","inputs":[{"name":"operator","type":"address","internalType":"address"},{"name":"approved","type":"bool","internalType":"bool"}],"outputs":[],"stateMutability":"nonpayable"},{"type":"function","name":"supportsInterface","inputs":[{"name":"interfaceId","type":"bytes4","internalType":"bytes4"}],"outputs":[{"name":"","type":"bool","internalType":"bool"}],"stateMutability":"view"},{"type":"function","name":"symbol","inputs":[],"outputs":[{"name":"","type":"string","internalType":"string"}],"stateMutability":"view"},{"type":"function","name":"tokenURI","inputs":[{"name":"tokenId","type":"uint256","internalType":"uint256"}],"outputs":[{"name":"","type":"string","internalType":"string"}],"stateMutability":"view"},{"type":"function","name":"transferFrom","inputs":[{"name":"from","type":"address","internalType":"address"},{"name":"to","type":"address","internalType":"address"},{"name":"tokenId","type":"uint256","internalType":"uint256"}],"outputs":[],"stateMutability":"nonpayable"},{"type":"function","name":"transferOwnership","inputs":[{"name":"newOwner","type":"address","internalType":"address"}],"outputs":[],"stateMutability":"nonpayable"},{"type":"event","name":"Approval","inputs":[{"name":"owner","type":"address","indexed":true,"internalType":"address"},{"name":"approved","type":"address","indexed":true,"internalType":"address"},{"name":"tokenId","type":"uint256","indexed":true,"internalType":"uint256"}],"anonymous":false},{"type":"event","name":"ApprovalForAll","inputs":[{"name":"owner","type":"address","indexed":true,"internalType":"address"},{"name":"operator","type":"address","indexed":true,"internalType":"address"},{"name":"approved","type":"bool","indexed":false,"internalType":"bool"}],"anonymous":false},{"type":"event","name":"BatchMetadataUpdate","inputs":[{"name":"_fromTokenId","type":"uint256","indexed":false,"internalType":"uint256"},{"name":"_toTokenId","type":"uint256","indexed":false,"internalType":"uint256"}],"anonymous":false},{"type":"event","name":"CertificateMinted","inputs":[{"name":"recipient","type":"address","indexed":true,"internalType":"address"},{"name":"tokenId","type":"uint256","indexed":true,"internalType":"uint256"},{"name":"tokenUri","type":"string","indexed":false,"internalType":"string"}],"anonymous":false},{"type":"event","name":"MetadataUpdate","inputs":[{"name":"_tokenId","type":"uint256","indexed":false,"internalType":"uint256"}],"anonymous":false},{"type":"event","name":"OwnershipTransferred","inputs":[{"name":"previousOwner","type":"address","indexed":true,"internalType":"address"},{"name":"newOwner","type":"address","indexed":true,"internalType":"address"}],"anonymous":false},{"type":"event","name":"Transfer","inputs":[{"name":"from","type":"address","indexed":true,"internalType":"address"},{"name":"to","type":"address","indexed":true,"internalType":"address"},{"name":"tokenId","type":"uint256","indexed":true,"internalType":"uint256"}],"anonymous":false},{"type":"error","name":"ERC721IncorrectOwner","inputs":[{"name":"sender","type":"address","internalType":"address"},{"name":"tokenId","type":"uint256","internalType":"uint256"},{"name":"owner","type":"address","internalType":"address"}]},{"type":"error","name":"ERC721InsufficientApproval","inputs":[{"name":"operator","type":"address","internalType":"address"},{"name":"tokenId","type":"uint256","internalType":"uint256"}]},{"type":"error","name":"ERC721InvalidApprover","inputs":[{"name":"approver","type":"address","internalType":"address"}]},{"type":"error","name":"ERC721InvalidOperator","inputs":[{"name":"operator","type":"address","internalType":"address"}]},{"type":"error","name":"ERC721InvalidOwner","inputs":[{"name":"owner","type":"address","internalType":"address"}]},{"type":"error","name":"ERC721InvalidReceiver","inputs":[{"name":"receiver","type":"address","internalType":"address"}]},{"type":"error","name":"ERC721InvalidSender","inputs":[{"name":"sender","type":"address","internalType":"address"}]},{"type":"error","name":"ERC721NonexistentToken","inputs":[{"name":"tokenId","type":"uint256","internalType":"uint256"}]},{"type":"error","name":"OwnableInvalidOwner","inputs":[{"name":"owner","type":"address","internalType":"address"}]},{"type":"error","name":"OwnableUnauthorizedAccount","inputs":[{"name":"account","type":"address","internalType":"address"}]}],"bytecode":{"object":"0x608060405234801561000f575f5ffd5b506040516116df3803806116df83398101604081905261002e9161012f565b806040518060400160405280601781526020017f50726f6a656374204365727469666963617465204e4654000000000000000000815250604051806040016040528060058152602001641410d1549560da1b815250815f908161009191906101f4565b50600161009e82826101f4565b5050506001600160a01b0381166100ce57604051631e4fbdf760e01b81525f600482015260240160405180910390fd5b6100d7816100de565b50506102ae565b600780546001600160a01b038381166001600160a01b0319831681179093556040519116919082907f8be0079c531659141344cd1fd0a4f28419497f9722a3daafe3b4186f6b6457e0905f90a35050565b5f6020828403121561013f575f5ffd5b81516001600160a01b0381168114610155575f5ffd5b9392505050565b634e487b7160e01b5f52604160045260245ffd5b600181811c9082168061018457607f821691505b6020821081036101a257634e487b7160e01b5f52602260045260245ffd5b50919050565b601f8211156101ef57805f5260205f20601f840160051c810160208510156101cd5750805b601f840160051c820191505b818110156101ec575f81556001016101d9565b50505b505050565b81516001600160401b0381111561020d5761020d61015c565b6102218161021b8454610170565b846101a8565b6020601f821160018114610253575f831561023c5750848201515b5f19600385901b1c1916600184901b1784556101ec565b5f84815260208120601f198516915b828110156102825787850151825560209485019460019092019101610262565b508482101561029f57868401515f19600387901b60f8161c191681555b50505050600190811b01905550565b611424806102bb5f395ff3fe608060405234801561000f575f5ffd5b5060043610610110575f3560e01c8063715018a61161009e578063b88d4fde1161006e578063b88d4fde14610223578063c87b56dd14610236578063d204c45e14610249578063e985e9c51461025c578063f2fde38b1461026f575f5ffd5b8063715018a6146101ef5780638da5cb5b146101f757806395d89b4114610208578063a22cb46514610210575f5ffd5b8063095ea7b3116100e4578063095ea7b31461018e57806323b872dd146101a357806342842e0e146101b65780636352211e146101c957806370a08231146101dc575f5ffd5b80629a9b7b1461011457806301ffc9a71461012b57806306fdde031461014e578063081812fc14610163575b5f5ffd5b6008545b6040519081526020015b60405180910390f35b61013e610139366004610f3f565b610282565b6040519015158152602001610122565b6101566102ac565b6040516101229190610f88565b610176610171366004610f9a565b61033b565b6040516001600160a01b039091168152602001610122565b6101a161019c366004610fcc565b610362565b005b6101a16101b1366004610ff4565b610371565b6101a16101c4366004610ff4565b6103ff565b6101766101d7366004610f9a565b61041e565b6101186101ea36600461102e565b610428565b6101a161046d565b6007546001600160a01b0316610176565b610156610480565b6101a161021e366004611047565b61048f565b6101a161023136600461110b565b61049a565b610156610244366004610f9a565b6104b2565b610118610257366004611182565b610533565b61013e61026a3660046111e0565b6105ad565b6101a161027d36600461102e565b6105da565b5f6001600160e01b03198216632483248360e11b14806102a657506102a682610617565b92915050565b60605f80546102ba90611211565b80601f01602080910402602001604051908101604052809291908181526020018280546102e690611211565b80156103315780601f1061030857610100808354040283529160200191610331565b820191905f5260205f20905b81548152906001019060200180831161031457829003601f168201915b5050505050905090565b5f61034582610666565b505f828152600460205260409020546001600160a01b03166102a6565b61036d82823361069e565b5050565b6001600160a01b03821661039f57604051633250574960e11b81525f60048201526024015b60405180910390fd5b5f6103ab8383336106ab565b9050836001600160a01b0316816001600160a01b0316146103f9576040516364283d7b60e01b81526001600160a01b0380861660048301526024820184905282166044820152606401610396565b50505050565b61041983838360405180602001604052805f81525061049a565b505050565b5f6102a682610666565b5f6001600160a01b038216610452576040516322718ad960e21b81525f6004820152602401610396565b506001600160a01b03165f9081526003602052604090205490565b61047561079d565b61047e5f6107ca565b565b6060600180546102ba90611211565b61036d33838361081b565b6104a5848484610371565b6103f933858585856108e2565b60606104bd82610666565b505f6104d360408051602081019091525f815290565b90505f6104df84610a0a565b905081515f036104f0579392505050565b80511561052257818160405160200161050a929190611260565b60405160208183030381529060405292505050919050565b61052b84610aa9565b949350505050565b5f61053c61079d565b60085f815461054a90611274565b9182905550905061055b8382610b1a565b6105658183610b33565b80836001600160a01b03167fde5d6fd45e32fffb472bcbaeedf6a2e3944633c9701eec7d99adfa07ad6104c18460405161059f9190610f88565b60405180910390a392915050565b6001600160a01b039182165f90815260056020908152604080832093909416825291909152205460ff1690565b6105e261079d565b6001600160a01b03811661060b57604051631e4fbdf760e01b81525f6004820152602401610396565b610614816107ca565b50565b5f6001600160e01b031982166380ac58cd60e01b148061064757506001600160e01b03198216635b5e139f60e01b145b806102a657506301ffc9a760e01b6001600160e01b03198316146102a6565b5f818152600260205260408120546001600160a01b0316806102a657604051637e27328960e01b815260048101849052602401610396565b6104198383836001610b82565b5f828152600260205260408120546001600160a01b03908116908316156106d7576106d7818486610c86565b6001600160a01b03811615610711576106f25f855f5f610b82565b6001600160a01b0381165f90815260036020526040902080545f190190555b6001600160a01b0385161561073f576001600160a01b0385165f908152600360205260409020805460010190555b5f8481526002602052604080822080546001600160a01b0319166001600160a01b0389811691821790925591518793918516917fddf252ad1be2c89b69c2b068fc378daa952ba7f163c4a11628f55a4df523b3ef91a4949350505050565b6007546001600160a01b0316331461047e5760405163118cdaa760e01b8152336004820152602401610396565b600780546001600160a01b038381166001600160a01b0319831681179093556040519116919082907f8be0079c531659141344cd1fd0a4f28419497f9722a3daafe3b4186f6b6457e0905f90a35050565b6001600160a01b0383166108445760405163a9fbf51f60e01b81525f6004820152602401610396565b6001600160a01b03821661087657604051630b61174360e31b81526001600160a01b0383166004820152602401610396565b6001600160a01b038381165f81815260056020908152604080832094871680845294825291829020805460ff191686151590811790915591519182527f17307eab39ab6107e8899845ad3d59bd9653f200f220920489ca2b5937696c31910160405180910390a3505050565b6001600160a01b0383163b15610a0357604051630a85bd0160e11b81526001600160a01b0384169063150b7a0290610924908890889087908790600401611298565b6020604051808303815f875af192505050801561095e575060408051601f3d908101601f1916820190925261095b918101906112d4565b60015b6109c5573d80801561098b576040519150601f19603f3d011682016040523d82523d5f602084013e610990565b606091505b5080515f036109bd57604051633250574960e11b81526001600160a01b0385166004820152602401610396565b805160208201fd5b6001600160e01b03198116630a85bd0160e11b14610a0157604051633250574960e11b81526001600160a01b0385166004820152602401610396565b505b5050505050565b5f818152600660205260409020805460609190610a2690611211565b80601f0160208091040260200160405190810160405280929190818152602001828054610a5290611211565b8015610a9d5780601f10610a7457610100808354040283529160200191610a9d565b820191905f5260205f20905b815481529060010190602001808311610a8057829003601f168201915b50505050509050919050565b6060610ab482610666565b505f610aca60408051602081019091525f815290565b90505f815111610ae85760405180602001604052805f815250610b13565b80610af284610cea565b604051602001610b03929190611260565b6040516020818303038152906040525b9392505050565b61036d828260405180602001604052805f815250610d7a565b5f828152600660205260409020610b4a8282611333565b506040518281527ff8e1a15aba9398e019f0b49df1a4fde98ee17ae345cb5f6b5e2c27f5033e8ce79060200160405180910390a15050565b8080610b9657506001600160a01b03821615155b15610c57575f610ba584610666565b90506001600160a01b03831615801590610bd15750826001600160a01b0316816001600160a01b031614155b8015610be45750610be281846105ad565b155b15610c0d5760405163a9fbf51f60e01b81526001600160a01b0384166004820152602401610396565b8115610c555783856001600160a01b0316826001600160a01b03167f8c5be1e5ebec7d5bd14f71427d1e84f3dd0314c0f7b2291e5b200ac8c7c3b92560405160405180910390a45b505b50505f90815260046020526040902080546001600160a01b0319166001600160a01b0392909216919091179055565b610c91838383610d91565b610419576001600160a01b038316610cbf57604051637e27328960e01b815260048101829052602401610396565b60405163177e802f60e01b81526001600160a01b038316600482015260248101829052604401610396565b60605f610cf683610df2565b60010190505f8167ffffffffffffffff811115610d1557610d15611080565b6040519080825280601f01601f191660200182016040528015610d3f576020820181803683370190505b5090508181016020015b5f19016f181899199a1a9b1b9c1cb0b131b232b360811b600a86061a8153600a8504945084610d4957509392505050565b610d848383610ec9565b610419335f8585856108e2565b5f6001600160a01b0383161580159061052b5750826001600160a01b0316846001600160a01b03161480610dca5750610dca84846105ad565b8061052b5750505f908152600460205260409020546001600160a01b03908116911614919050565b5f8072184f03e93ff9f4daa797ed6e38ed64bf6a1f0160401b8310610e305772184f03e93ff9f4daa797ed6e38ed64bf6a1f0160401b830492506040015b6d04ee2d6d415b85acef81000000008310610e5c576d04ee2d6d415b85acef8100000000830492506020015b662386f26fc100008310610e7a57662386f26fc10000830492506010015b6305f5e1008310610e92576305f5e100830492506008015b6127108310610ea657612710830492506004015b60648310610eb8576064830492506002015b600a83106102a65760010192915050565b6001600160a01b038216610ef257604051633250574960e11b81525f6004820152602401610396565b5f610efe83835f6106ab565b90506001600160a01b03811615610419576040516339e3563760e11b81525f6004820152602401610396565b6001600160e01b031981168114610614575f5ffd5b5f60208284031215610f4f575f5ffd5b8135610b1381610f2a565b5f81518084528060208401602086015e5f602082860101526020601f19601f83011685010191505092915050565b602081525f610b136020830184610f5a565b5f60208284031215610faa575f5ffd5b5035919050565b80356001600160a01b0381168114610fc7575f5ffd5b919050565b5f5f60408385031215610fdd575f5ffd5b610fe683610fb1565b946020939093013593505050565b5f5f5f60608486031215611006575f5ffd5b61100f84610fb1565b925061101d60208501610fb1565b929592945050506040919091013590565b5f6020828403121561103e575f5ffd5b610b1382610fb1565b5f5f60408385031215611058575f5ffd5b61106183610fb1565b915060208301358015158114611075575f5ffd5b809150509250929050565b634e487b7160e01b5f52604160045260245ffd5b5f5f67ffffffffffffffff8411156110ae576110ae611080565b50604051601f19601f85018116603f0116810181811067ffffffffffffffff821117156110dd576110dd611080565b6040528381529050808284018510156110f4575f5ffd5b838360208301375f60208583010152509392505050565b5f5f5f5f6080858703121561111e575f5ffd5b61112785610fb1565b935061113560208601610fb1565b925060408501359150606085013567ffffffffffffffff811115611157575f5ffd5b8501601f81018713611167575f5ffd5b61117687823560208401611094565b91505092959194509250565b5f5f60408385031215611193575f5ffd5b61119c83610fb1565b9150602083013567ffffffffffffffff8111156111b7575f5ffd5b8301601f810185136111c7575f5ffd5b6111d685823560208401611094565b9150509250929050565b5f5f604083850312156111f1575f5ffd5b6111fa83610fb1565b915061120860208401610fb1565b90509250929050565b600181811c9082168061122557607f821691505b60208210810361124357634e487b7160e01b5f52602260045260245ffd5b50919050565b5f81518060208401855e5f93019283525090919050565b5f61052b61126e8386611249565b84611249565b5f6001820161129157634e487b7160e01b5f52601160045260245ffd5b5060010190565b6001600160a01b03858116825284166020820152604081018390526080606082018190525f906112ca90830184610f5a565b9695505050505050565b5f602082840312156112e4575f5ffd5b8151610b1381610f2a565b601f82111561041957805f5260205f20601f840160051c810160208510156113145750805b601f840160051c820191505b81811015610a03575f8155600101611320565b815167ffffffffffffffff81111561134d5761134d611080565b6113618161135b8454611211565b846112ef565b6020601f821160018114611393575f831561137c5750848201515b5f19600385901b1c1916600184901b178455610a03565b5f84815260208120601f198516915b828110156113c257878501518255602094850194600190920191016113a2565b50848210156113df57868401515f19600387901b60f8161c191681555b50505050600190811b0190555056fea2646970667358221220cc21821f36ee2e79396eea28f48ee99894776ecd52f3a3b7a9b2b1e6f3b8092f64736f6c634300081c0033","linkReferences":{}},"methodIdentifiers":{"approve(address,uint256)":"095ea7b3","balanceOf(address)":"70a08231","currentTokenId()":"009a9b7b","getApproved(uint256)":"081812fc","isApprovedForAll(address,address)":"e985e9c5","name()":"06fdde03","owner()":"8da5cb5b","ownerOf(uint256)":"6352211e","renounceOwnership()":"715018a6","safeMint(address,string)":"d204c45e","safeTransferFrom(address,address,uint256)":"42842e0e","safeTransferFrom(address,address,uint256,bytes)":"b88d4fde","setApprovalForAll(address,bool)":"a22cb465","supportsInterface(bytes4)":"01ffc9a7","symbol()":"95d89b41","tokenURI(uint256)":"c87b56dd","transferFrom(address,address,uint256)":"23b872dd","transferOwnership(address)":"f2fde38b"},"id":39}